:100E2500543A004175746F00202020202020202096
:100E350020202020202020200048616E6400204EC4
:100E450020570054483A00544C3A002020202020D6
:070E550000476561723A00DD
:100CF600AC09EC120258AB15AA14A913A8121201DA
:100D0600C44014E5117003751101AF15AE14AD138F
:100D1600AC1212028C8004E4F511FF1211FEAC0F26
:100D2600EC120258AB15AA14A913A8121201C4603A
:0B0D36000250077F647E00120FC022F5
:10047D001211707FE87E03120006E4FF120EF58F55
:10048D000F7F01120EF58F09D3E50F648094FD5097
:10049D0016C3E50964809449400DD3E5096480F8DD
:1004AD00E50F6480985006750F1475090F7F0212C1
:1004BD000EF58F08E508D394035006E50894005017
:1004CD00037508011211047BFF7A0E79257D017FDA
:1004DD0001120F9D1211FB1211E9121170120F254D
:1004ED008F0E8E0D8D0C8C0BE4FFFEFDFCAB0EAA5A
:1004FD000DA90CA80B1201C4501E7B2D7D037F018D
:10050D001211A9AF0EAE0DAD0CAC0B12023D8F1535
:10051D008E148D138C1280157B2B7D037F01121190
:10052D00A9850E15850D14850C13850B12AF15AE0F
:10053D0014AD13AC1212028CAB07AA067528027DFE
:10054D00047F0112103C7B2E7D067F011211A9E460
:10055D00FFFE7DC87C42AB15AA14A913A812120088
:10056D001E12028CE47B64FAF9F81203DD75280281
:10057D007D077F0112103C1211F58F10121156EFED
:10058D007007E5107003020733E510600DFB7A006C
:10059D007528027D0A7F0112103C1212048F0AE5A4
:1005AD000A64466009E5106401600302063BE50834
:1005BD00B4011A7BFF7A0E79287D0D7F01120F9DF4
:1005CD007BFF7A0E792D7D017F02120F9DE508B418
:1005DD00021A7BFF7A0E793E7D0D7F01120F9D7BF6
:1005ED00FF7A0E792D7D017F02120F9DE508B40370
:1005FD001A7BFF7A0E79437D0D7F01120F9D7BFFD4
:10060D007A0E792D7D017F02120F9D0508E508D325
:10061D0094035006E50894005003750801E508FDA4
:10062D007C007F02120F797F057E00120006E50A1D
:10063D0064436005E510B4020E050FD3E50F648029
:10064D0094FD4003750F7DE50A64406005E510B427
:10065D000302150FE50A64096005E510B4040205EF
:10066D0009E50A64156005E510B4050E1509C3E525
:10067D00096480944950037509C9E50FFB3395E072
:10068D00FA7527037D047F02120D41E509FB3395B1
:10069D00E0FA7527037D0C7F02120D41E50FFD3346
:1006AD0095E0FCE4FF120F797F057E00120006E550
:1006BD0009FD3395E0FC7F01120F797F057E001255
:1006CD000006E50A6416600BE50A64456005E51051
:1006DD00B40603E4F511E50A640C6005E510B407F2
:1006ED0003751101E50A64186005E510B40803757A
:1006FD001102E50A645E6005E510B4090375110386
:10070D00E5117004FF1211FEE511B401057F1912F8
:10071D0011FEE511B402057F4B1211FEE511B40374
:10072D00057F641211FEE50824FE605C147003025F
:10073D0007CE240260030204E77BFF7A0E79287D41
:10074D000D7F01120F9D7BFF7A0E79487D017F028F
:10075D00120F9D7BFF7A0E794C7D097F02120F9D42
:10076D00E50FFB3395E0FA7527037D047F02120D2B
:10077D0041E509FB3395E0FA7527037D0C7F0212E5
:10078D000D41120CF60204E77BFF7A0E793E7D0DCA
:10079D007F01120F9D7BFF7A0E79507D0B7F021228
:1007AD000F9D7BFF7A0E79567D017F02120F9DE51D
:1007BD0011FB7A007527017D067F02120D4102049F
:1007CD00E77BFF7A0E79507D0B7F02120F9D7BFF29
:1007DD007A0E79437D0D7F01120F9D120E5C120E64
:0407ED008F0204E78C
:10000600EF1FAC0670011E4C600A7D027CEFDCFE21
:04001600DDFC80ECA1
:01001A0022C3
:0511DD00E4AF49F549F3
:0111E20022EA
:1010C200E4FF20B1010F20B0027F0220B2027F03B1
:0510D20020B3027F04C1
:0110D70022F6
:100D7B008547481210C28F47E548B40107E5477015
:100D8B0003754901E548B40207E54770037549024D
:100D9B00E548B40307E5477003754903E548B40418
:080DAB0007E5477003754904D8
:010DB300221D
:0C1118000A2E3F065B4F666D7D077F6F5F
:100C8900EF14B408005054900C9E75F003A4C5836A
:100C990025F0C58373020CB6020CBA020CBE020C15
:100CA900C2020CC6020CCE020CD6020CDED2A48003
:100CB9000ED2A48012D2A48016D2A4801AC2A4D2C1
:100CC900A3D2A28016C2A4D2A3C2A2800EC2A4C279
:100CD900A3D2A28006C2A4C2A3C2A2742E2DF8E692
:0D0CE900F5807F017E00120006E4F58022F8
:1010AB0053890F438910758B9C758DFFC28FD28E20
:0710BB00D2ABD2AFC2BB2291
:0711CF0053706565643A00EE
:03112400013B018B
:0311FB000210AB34
:0311FE008F3A2203
:03001B00020C19BB
:100C1900C0E0C0F0C083C082C0D075D000C000C0A1
:0D0C290001C002C003C004C005C006C00722
:100C3600758B9C758DFF053CE53C75F0648485F0ED
:100C46003CE53CC3953A5004D2908002C2900539E7
:100C5600E53970020538C394C8E538940040097533
:080C66003800753900120AC4C0
:100C6E00D007D006D005D004D003D002D001D000DA
:0B0C7E00D0D0D082D083D0F0D0E03284
:0F113800E53AFB7A007528027D0A7F0102103C20
:100E5C007BFF7A1179CF7D017F02120F9DE4F52380
:100E6C0085233AE53AFB7A007528027D077F02124A
:100E7C00103C7F0A7E001200060523E523C3946410
:020E8C0040DE46
:010E8E002241
:100E8F007BFF7A1179CF7D017F02120F9D7523634E
:100E9F0085233AE53AFB7A007528027D077F021217
:100EAF00103C7F0A7E001200061523E523D3940021
:020EBF0050DE03
:010EC100220E
:0B118900D288C289D2A8D2AFD2B8220F
:101128005389F0438901E4F58AF58CC28DC28C227B
:0B119400AD07AC068C8CAF058F8A22E3
:0911BD00AF8CEFFEAD8AEDFF22BC
:0611E300EF24FF928C22B4
:0611E90012112802118919
:0D115600E51D6006E4F51D7F01227F0022EB
:0D116300E51B6006E4F51B7F01227F0022E2
:03120100AF1A22FF
:03120400AF1922FD
:0300030002097A75
:10097A00C0E0C0F0C083C082C0D075D000C000C043
:10098A0001C002C003C004C005C006C007E5167056
:10099A000CFFFE1211947F011211E38049E51664DF
:1009AA000170491211BD8E178F18E4FFFE121194BF
:1009BA00D3E51894A6E517942E4010E518948EE511
:1009CA001794325006751602020AA9D3E518948CB8
:1009DA00E51794264010E5189474E517942A5006F2
:1009EA00751B01020AA1751601020AA9E51664021D
:1009FA006003020AA91211BD8E178F18E4FFFE12B6
:100A0A001194D3E5189414E5179402402BE5189431
:100A1A00FCE51794055021E51C131313541F241EDB
:100A2A00F8C000E6FFE51C5407FEF87401088002CE
:100A3A00C333D8FCF45F8033D3E5189426E51794C2
:100A4A0006402FE518940EE517940A5025E51C1365
:100A5A001313541F241EF8C000E6FFE51C5407FEBA
:100A6A00F87401088002C333D8FC4FD000F6051C85
:100A7A008006751C00751601E51CC394204020757C
:100A8A001C00E51FF4B51E0FE521F4B52009851EEB
:100A9A001A852019751D01E4FF1211E3751600D09D
:100AAA0007D006D005D004D003D002D001D000D0A0
:0A0ABA00D0D082D083D0F0D0E0321B
:100F79008F238C248D251211C67FA0120F501211B8
:100F89007DAF23120F5012117DAF25120F50121190
:040F99007D0211D6EE
:020EF5008F2349
:100EF7001211C67FA0120F5012117DAF23120F508F
:100F070012117D1211C67FA1120F5012117D1210FE
:0D0F17001E8F247F011211B31211D6AF24DA
:010F240022AA
:06114700C2A58F80D2A7B3
:08114D007F027EEFDEFEDFFCF5
:011155002277
:0A119F00C2A6121147C2A702114DAB
:100FE200CFCDCFCECCCE12034C7C007D0A12034C67
:040FF200ED2430FFBB
:0A0FF600D2A6121147C2A702114D46
:1010D800AE07BE0104ED148006BE0209ED243F44AC
:0610E80080FF12119F229F
:101104007F3812119F7F0C12119F7F0612119F7F4F
:041114000102119F24
:0A11A900AC031210D8AF04020FF6D9
:060F9D008B248A25892641
:100FA3001210D8E4FDAB24AA25A9268D82758300EF
:0C0FB30012030DFF6006120FF60D80E91E
:010FBF00220F
:0C0EC2007F0AEA24FFFDE434FFFC7E0000
:080ECE008E2A8F2B8C2C8D2D38
:100ED6007F017E00E4FBEBC3952DE52C6480F8745E
:0E0EE6008098500AAC2AAD2B12033A0B80E81C
:010EF40022DB
:04103C008A268B274E
:101040001210D8AA28EAD39400400D120EC2AC2682
:08105000AD27120FE21A80ED3A
:011058002275
:100D41001210D8C3EA64809480400B7F2B120FF6F7
:100D51008A288B29800E7F2D120FF6C3E49BF5297B
:100D6100E49AF528AA27EAD39400400D120EC2ACEA
:090D710028AD29120FE21A80EDF1
:010D7A002256
:040DB4008A3F8B40A7
:100DB8001210D8AA41EAD3940040297F10120EC419
:100DC800AC3FAD40CFCDCFCECCCE12034CEF540FBD
:100DD800FEC3940AEE5004243080022437FF120F19
:040DE800F61A80D1A6
:010DEC0022E4
:040DED008A448B4564
:100DF1001210D8AA46EAD394004028EA24FFFDE461
:100E010034FFFC7F027E00120ECEAC44AD45CFCD47
:100E1100CFCECCCE12034CEF54012430FF120FF68B
:030E21001A80D262
:010E240022AB
:0D1170001210007FCC1210927F44021092EA
:100F25001210007FCC1210927FBE1210921210592F
:100F35008F23121059EFFEE523FFFDAC06EC1202DC
:0B0F450053E4FBFA7980784102012799
:10100000C2AFD2B7C2B77FF7DFFED2B77F20DFFE15
:0D101000A2B7E433FE7FF7DFFED2AFAF06DC
:01101D0022B0
:1010EE00C2AFC2B77E04DEFEEF24FF92B77E18DEDB
:0510FE00FED2B7D2AFE5
:0111030022C9
:10107600C2AFC2B77F02DFFED2B77F02DFFEA2B7E2
:0B108600E433FE7F18DFFED2AFAF06A0
:01109100223C
:02109200AD07A8
:10109400E4FCA8047401088002C333D8FC5DFF1289
:0610A40010EE0CBC08EC8C
:0110AA002223
:10105900E4FDFC121076EF600DA80474010880020B
:0C106900C333D8FC42050CBC08E9AF05FD
:011075002258
:0911C600D2A0D2A1C2A0C2A12254
:0711D600C2A0D2A1D2A022A9
:020F5000AD07EB
:100F5200E4FB7E007480A803088006CEA2E713CECD
:100F620013D8F8FFEDF582EF558224FF92A0D2A1AB
:060F7200C2A10BBB08DC6C
:010F78002256
:10101E00E4FFD2A0FED2A130A00DA80674800880F5
:0D102E0002C313D8FC4207C2A10EBE08E8A1
:01103B002292
:0A11B300EF24FF92A0D2A1C2A122F6
:0B117D00D2A0D2A1A2A0E433FFC2A1C7
:011188002244
:0511EF00007FF7DFFEA8
:0111F40022D8
:040FC000AD07AC06C7
:100FC400E4FBFAED25E0FFEC33FEC3EB9FEA9E5011
:0D0FD4000CB2A51211EF0BBB00010A80E664
:010FE10022ED
:0511F500E4AF4CF54CD5
:0111FA0022D2
:1007F100E4F5227590FFC2932097137F14FE120037
:10080100063097FD7F147E001200067522012096A6
:10081100147F147E001200063096FD7F147E0012B4
:1008210000067522052095147F147E001200063003
:1008310095FD7F147E001200067522092094147F15
:10084100147E001200063094FD7F147E0012000613
:1008510075220D7590FFC2922097147F147E0012AD
:1008610000063097FD7F147E0012000675220220DB
:1008710096147F147E001200063096FD7F147E00D0
:100881001200067522062095147F147E00120006C0
:100891003095FD7F147E0012000675220A20941403
:1008A1007F147E001200063094FD7F147E0012003A
:1008B1000675220E7590FFC2912097147F147E0059
:1008C1001200063097FD7F147E0012000675220388
:1008D1002096147F147E001200063096FD7F147E50
:1008E100001200067522072095147F147E00120065
:1008F100063095FD7F147E0012000675220B2094B0
:10090100147F147E001200063094FD7F147E0012C5
:10091100000675220F7590FFC2902097147F147EF8
:10092100001200063097FD7F147E0012000675222A
:10093100042096147F147E001200063096FD7F1469
:100941007E001200067522082095147F147E001285
:1009510000063095FD7F147E0012000675220C20E2
:1009610094147F147E001200063094FD7F147E00E3
:08097100120006752210AF22EE
:01097900225B
:100AC400854A4B1207F18F4AE54BB40107E54A709A
:100AD40003754C01E54BB40207E54A7003754C02FB
:100AE400E54BB40307E54A7003754C03E54BB404C6
:100AF40007E54A7003754C04E54BB40507E54A70F5
:100B040003754C05E54BB40607E54A7003754C06BE
:100B1400E54BB40707E54A7003754C07E54BB40889
:100B240007E54A7003754C08E54BB40907E54A70BC
:100B340003754C09E54BB40A07E54A7003754C0A82
:100B4400E54BB40B07E54A7003754C0BE54BB40C4D
:100B540007E54A7003754C0CE54BB40D07E54A7084
:100B640003754C0DE54BB40E07E54A7003754C0E46
:100B7400E54BB40F07E54A7003754C0FE54BB41011
:080B840007E54A7003754C10EF
:010B8C002246
:10001E00EC4D6011E8497017ED33EC3304600DE4DC
:10002E00FCFFFEFD22E933E8330470F80202F812F9
:10003E0002C358046009E4CC2481500628500902FA
:10004E0003022840030202FFC0E0EB4A7044B9806D
:10005E0006D0E0FB0202EEEF4E701CBD8008EBFFF7
:10006E00EAFEE9FD80EBE98DF0A4FEE5F002010762
:10007E00E9CDF9EAFEEBFFEF89F0A4FCE5F0CE89BD
:10008E00F0A42EFFE435F0CD89F0A42DFEE435F07A
:10009E008067EF4E7005BD80D780C3EF8BF0A4ACA8
:1000AE00F0EE8BF0A42CFCE435F0F8EF8AF0A42CE3
:1000BE00E5F038FCE433CB8DF0A42CFCE5F03BF8F6
:1000CE00EE8AF0A42CFCE5F038F8E433CF89F0A4E6
:1000DE002CFCE5F038CF3400CE89F0A42FFFE5F0EC
:1000EE003EFEE433C98DF0A42EFEE5F039CD8AF044
:1000FE00A42FFFE5F03EFEE43DFD33D0E0FB5007BC
:10010E000BBB000F020302EC2CFCEF33FFEE33FEB1
:06011E00ED33FD0202DAE0
:10012400020302EC5D046005E8590470030202F85E
:100134001202C3580460F6EC4860F2EC7004FDFE51
:10014400FF22C860DB2481C85009C39860025006AE
:100154000202FF9850CAF582E9294B4A7005AB8226
:100164000202EE75F0007C1A7880C3EF9BEE9AEDE4
:1001740099400DC3EF9BFFEE9AFEED99FDE842F026
:10018400DC23ACF0D0E0FFD0E0FED0E0FDAB822079
:10019400E7101BEB60BAEC2CFCEF33FFEE33FEED03
:1001A40033FD0202DAE803F830E705C0F075F00029
:1001B400EF2FFFEE33FEED33FD40B830E7C280AAE7
:1001C40074F8CC6480CCC86480C8F58204604FC3E2
:1001D400EB9FF5F0EA9E42F0E99D42F0E89C45F081
:1001E400603C501DE5825FFFE582D313CB5BCBF40B
:1001F4002B5582FB50280ABA002409B90020088034
:100204001DE5825BFBE582D313CF5FCFF4C3132FCD
:100214005582FF50090EBE00050DBD00010CC3EB55
:100224009FF5F0EA9E42F0E99D42F0E89C45F060BB
:0902340007CC4820E701B3EC22DD
:10023D00ED33EC33600A047003BD8004ECB2E7FCCF
:01024D00228E
:10024E0075F020800E75F010800575F0087D007E2B
:10025E00007F003392D530D50312046FEC3340107B
:10026E00EF33FFEE33FEED33FDEC33FCD5F0ED2234
:0E027E00E5F0247EA2D513CC92E7CDCEFF2270
:10028C00EDD2E7CD33EC3392D524814006E4FFFE6A
:10029C00FDFC22FCE4CFCECDCC24E0501174FF80C9
:1002AC00EDC3CC13CCCD13CDCE13CECF13CF047066
:0702BC00F030D5DE02046FF3
:1002C300E9D2E7C933E833F892D5EDD2E7CD33EC81
:0702D30033FC5002B2D522FA
:1002DA00EC30E7100FBF000C0EBE00080DBD000485
:1002EA000BEB6014A2D5EB13FCED92E7FD2274FF31
:1002FA00FCFDFEFF22E480F8A2D574FF13FC7D808A
:03030A00E480EF9D
:03000000020B8D63
:0C0B8D00787FE4F6D8FD75814C020BD493
:10030D00BB010CE58229F582E5833AF583E02250A5
:10031D0006E92582F8E622BBFE06E92582F8E222EF
:0D032D00E58229F582E5833AF583E4932209
:10033A00EF8DF0A4A8F0CF8CF0A428CE8DF0A42ED7
:02034A00FE2291
:10034C00BC000BBE0029EF8DF084FFADF022E4CC95
:10035C00F875F008EF2FFFEE33FEEC33FCEE9DEC5E
:10036C00984005FCEE9DFE0FD5F0E9E4CEFD22EDA4
:10037C00F8F5F0EE8420D21CFEADF075F008EF2FEE
:10038C00FFED33FD4007985006D5F0F222C398FDDF
:05039C000FD5F0EA227C
:1003A10075F008758200EF2FFFEE33FECD33CDCC13
:1003B10033CCC58233C5829BED9AEC99E582984096
:1003C1000CF582EE9BFEED9AFDEC99FC0FD5F0D673
:1003D100E4CEFBE4CDFAE4CCF9A88222B800C1B99D
:1003E1000059BA002DEC8BF084CFCECDFCE5F0CBDB
:1003F100F97818EF2FFFEE33FEED33FDEC33FCEB14
:1004010033FB10D703994004EB99FB0FD8E5E4F9CE
:10041100FA227818EF2FFFEE33FEED33FDEC33FCBB
:10042100C933C910D7059BE99A4007EC9BFCE99AAF
:10043100F90FD8E0E4C9FAE4CCFB2275F010EF2FF4
:10044100FFEE33FEED33FDCC33CCC833C810D707F4
:100451009BEC9AE899400AED9BFDEC9AFCE899F82F
:0E0461000FD5F0DAE4CDFBE4CCFAE4C8F922C2
:0E046F00C3E49FFFE49EFEE49DFDE49CFC229E
:100B990002047DE493A3F8E493A34003F68001F2F1
:100BA90008DFF48029E493A3F85407240CC8C3335D
:100BB900C4540F4420C8834004F456800146F6DF2C
:100BC900E4800B0102040810204080901118E47E93
:100BD900019360BCA3FF543F30E509541FFEE49321
:100BE900A360010ECF54C025E060A840B8E493A3E8
:100BF900FAE493A3F8E493A3C8C582C8CAC583CA13
:100C0900F0A3C8C582C8CAC583CADFE9DEE780BECA
:0111270000C7
:00000001FF
